:1000000091C09DC15FC61FC2A8C0A7C0A6C0A5C0A1
:10001000A4C0A2C31FC472C4A0C09FC03BC49DC0E3
:100020009CC09BC09AC0351F111F35121F10351D73
:1000300015173515151F3507041F3517151D351FE5
:10004000151D3501011F351F151F3517151F351ECD
:10005000051E351F150A350E110A351F110E351FE5
:100060001511351F0501350E111A351F041F151FF7
:100070003508100F351F041B351F1010551F0204C3
:10008000021F451F02041F350E110E351F050245C4
:100090000E11191E351F053A3512150935011F01BC
:1000A000450F10100F350F100F550F1008100F359A
:1000B0001B041B3513140F35191513D7087F001CAB
:1000C00008000800087F001C081678340207520454
:1000D0000333A007520403270104033671075204B7
:1000E00003467104020752040324600403467104AA
:1000F000020752029336710752029327010293338B
:10010000A0075202933402075202931608130413F5
:1001100044158414051445130615851536149613D5
:100120000716370011241FBECFE5D4E0DEBFCDBFD8
:1001300010E0A0E6B0E0E4E8FDE002C005900D921A
:10014000A636B107D9F710E0A6E6B0E001C01D92CF
:10015000A23AB107E1F7A5D413C652CF482F98E0D1
:1001600080E0282F207F30E0213431050CF0805DC5
:10017000282F2F7030E0253031050CF08D5F880F6F
:1001800047FD8160440F915061F7089548E090E089
:10019000969580FD90688695282F207F30E0213449
:1001A00031050CF08053282F2F7030E025303105B9
:1001B0000CF08350415061F7892F089584E080B995
:1001C00081B181B908950F9394EA96BF06B607FEF0
:1001D000FDCF91B1987F983069F5982F990F93B919
:1001E00094E896BF06B607FEFDCF91B1987F98318F
:1001F00009F5562FFB0164E89E2F951B941758F4C0
:10020000919193B966BF06B607FEFDCF91B1987F75
:10021000983291F30FC0011104C084E986BF80E0D9
:100220003BC094EB96BF06B607FEFDCF91B1987F19
:10023000983011F08FEF30C0880F816083B984E867
:1002400086BF06B607FEFDCF81B1887F803491F767
:10025000522FF90181E090E0202F30E064EC74E847
:100260004E2F451B4017C8F68217930749F476BFF7
:1002700006B607FEFDCF41B1487F483549F0DACFD9
:1002800066BF06B607FEFDCF41B1487F403591F607
:1002900043B141930196E4CF0F9108950F931F93BB
:1002A000CF93DF93CDB7DEB72B970FB6F894DEBFB1
:1002B0000FBECDBF182F062FBA01422F50E0CE013E
:1002C00002962B8754D509832B8541E0420F00E02D
:1002D00020E030E0BE016F5F7F4F812F74DF2B96EF
:1002E0000FB6F894DEBF0FBECDBFDF91CF911F9147
:1002F0000F9108950F93CF93DF931F92CDB7DEB781
:100300006983022F9A0141E0BE016F5F7F4F5BDF7F
:100310000F90DF91CF910F91089585B7826085BFCF
:100320008BB780648BBF85B5886085BD80E883BD51
:1003300089B7806889BF10927100789408951F92E0
:100340000F920FB60F9211242F933F934F935F9309
:100350006F937F938F939F93AF93BF93CF93EF93BD
:10036000FF9384B590B7926090BF14BC95B5976029
:1003700095BD9091710090FF48C09BEF980F92310E
:1003800008F04CC0E0916C00E695E695E695F0E04B
:10039000E359FF4F8E3078F4308120916C00277044
:1003A00081E090E0022E01C0880F0A94EAF7809560
:1003B000832380830DC0208130916C00377081E0F1
:1003C00090E0032E01C0880F0A94EAF7282B2083BF
:1003D00080916C0091E0980F90936C008F3109F53B
:1003E000C0916D00C230D1F480916E008F3FB1F4A6
:1003F00090916F008091700089278F3F79F48091F0
:100400006F0010D3C09371000CC083558D3230F44F
:1004100081E08093710010926C0003C084E08093AF
:100420007100FF91EF91CF91BF91AF919F918F910B
:100430007F916F915F914F913F912F910F900FBEE0
:100440000F901F9018951F920F920FB60F921124C4
:100450008F9385B5887F85BD80B7826080BF1092FD
:1004600071008F910F900FBE0F901F90189587B35A
:100470008D6287BBC29A8DB1836F8DB98FB5816351
:100480008FBD8EB58A608EBD89B7816089BF83B705
:10049000836083BF87B1806687B986B18F6086B974
:1004A00010927500109274007894089588BD089594
:1004B000882349F08091670082608093670088B547
:1004C000809372000895809167008D7F809367000C
:1004D000379808958D30F8F46930E8F4E62FF0E0AD
:1004E000982F9695969596958770EE0FFF1FE90FBA
:1004F000F11DE557FF4F908120E830E002C03595AF
:1005000027958A95E2F7442319F0922B908308955A
:100510002095292320830895FF920F931F93CF9353
:10052000DF931F92CDB7DEB7F62E042F080F80178A
:1005300049F011E0180F422F6F2D2983CBDF812F57
:100540002981F5CF0F90DF91CF911F910F91FF90EF
:100550000895EBE8F0E0119280E0ED39F807D9F763
:100560000895EF92FF920F931F93CF93DF93811122
:100570000FC080E090E0FC01E758FF4FDC01A55779
:10058000BF4F2C912083019682319105A1F75BC06A
:100590009FEF980F933008F056C020E030E00EEF48
:1005A000080F60E870E090E0A901440F551FB92FD3
:1005B000B695B695B695A92FA7700230C8F4FA0182
:1005C000EB0FF11DE758FF4F1081EB010A2E02C01F
:1005D000D595C7950A94E2F7823011F41C2B01C01F
:1005E0001C271083EFE3FCE93197F1F700C000000E
:1005F000EA01CB0FD11DFE01E758FF4F10817B01AF
:1006000002C0F594E794AA95E2F7D701BE2DB09504
:10061000B123B0831081C557DF4FB881BA23B12B06
:10062000B083813031F4EFE1FEE43197F1F700C09F
:1006300000009F5F9D3009F0BACF2F5F3F4F2930F8
:10064000310509F0B0CFDF91CF911F910F91FF904D
:10065000EF900895882341F0109266008091670022
:100660008160809367000895809167008E7F8093FA
:1006700067008FB580638FBD089520E1829FC00120
:1006800011246F70682B609374000895CF92DF92ED
:10069000EF92FF920F931F93CF93DF931F92CDB7EB
:1006A000DEB7E6E2F0E0815048F0249122952F7009
:1006B00030E02F5F3F4FE20FF31FF5CFF490F2943D
:1006C0008FE0F82294919F706F018FEFC81AD80ABB
:1006D00010E01F15D1F0F601E49000E0091781F059
:1006E000809174004E2D4170682F6F70600F82955D
:1006F0008F70810F9983EEDEE6940F5F9981EECFC4
:100700001F5FFFEFCF1ADF0AE4CF80917400805F94
:1007100090E1199F800D1124809374000F90DF9158
:10072000CF911F910F91FF90EF90DF90CF900895A0
:1007300090ED980F9A3070F09FEB980F9A3110F46B
:1007400099EC05C09FE9980F9A3118F499EA980F2F
:1007500001C0982F892F9ACF1F920F920FB60F9238
:1007600011242F933F934F935F938F939F93EF9316
:10077000FF9320919D0080916600909166009F5F9D
:100780009093660080958923822B87FD03C0809318
:100790009D000BC08F7780939D008091670080FF44
:1007A00004C08FB590E389278FBD80919D0082FFA3
:1007B00009C010929D008091670081FF03C086B13F
:1007C000806C86B950917500252F30E0F901EE0F4D
:1007D000FF1FE758FF4F8081809378004181487F59
:1007E000409377005330E8F484E090E002C09595A0
:1007F00087955A95E2F7842B8093770010927600C4
:10080000C09810927300809176008FB98091750026
:100810008F5F893018F4809375000FC010927500B7
:100820000CC02350310980E890E002C0959587956F
:100830002A95E2F780937600E3CFFF91EF919F91A5
:100840008F915F914F913F912F910F900FBE0F901D
:100850001F9018951F920F920FB60F9211248F932D
:10086000EF93FF9380917300823058F4E09173000E
:10087000EF5FE0937300F0E0EA58FF4F80818FB99B
:1008800001C0C09AFF91EF918F910F900FBE0F9012
:100890001F9018951F920F920FB60F9211248F93ED
:1008A0009F9395B180917200891720F48091720016
:1008B0008F5F08C095B180917200981728F48091DD
:1008C00072008150809372008091720088BD9F9168
:1008D0008F910F900FBE0F901F901895899A10BCA2
:1008E0008CE089B98AB188698AB980B5866880BD8B
:1008F000789408955D9BFECF8CB908951F920F9256
:100900000FB60F9211242F933F934F935F936F93E2
:100910007F938F939F93AF93BF93EF93FF938CB18C
:1009200089D0FF91EF91BF91AF919F918F917F916E
:100930006F915F914F913F912F910F900FBE0F904C
:100940001F901895939A85B7886085BF8BB780688C
:100950008BBF8DDDE2DC32DCC1DF789408951F931C
:10096000CF93DF93EC01FE01662349F084918295D9
:100970008F70C80FD11DC80FD11D6150F4CF1491D5
:1009800012951F70112371F0FE014491319664910C
:1009900084914F706F7021E082958F70BDDD22963B
:1009A0001150F0CFDF91CF911F910895CF93DF9336
:1009B000D82FC0E0663018F0CF5F6550FBCF6330B2
:1009C00008F0CF5FC73020F0DF5FCC3009F4C0E023
:1009D000DC3008F0DC5080916100D81304C08091B5
:1009E0006000C817E1F0D0936100C0936000B1DDF2
:1009F00021E042E060E080E08FDD21E042E060E065
:100A000083E08ADD6D2F8BE091E0A9DF6C2F89EC0C
:100A100090E0A5DF80916A00DF91CF91A2CDDF91B8
:100A2000CF9108958093A10080916B0081608093A5
:100A30006B00089590916B0093FD25C08F3F19F4D2
:100A4000109268000AC0E091680091E09E0F9093B8
:100A50006800F0E0E256FF4F808380919E00811194
:100A600005C080916800823071F406C0813059F46D
:100A700080916800833039F480916B0088608093A6
:100A80006B0010926800089564DD62E082E0F5DD9D
:100A900082E64EDE82E74CDE89E64ADE83E061DDF7
:100AA000FFCFCF93DF9300D0CDB7DEB74BDF2FEF73
:100AB00089E698E1215080409040E1F700C00000B5
:100AC00081E0F6DC23E042E650E060E081E5E6DB31
:100AD00080916B00826080936B001CE00BE380913F
:100AE0006B0080FFACC080916B008E7F80936B00A9
:100AF0008091A100813179F168F48930D9F020F436
:100B0000843009F480C09BC08C3009F463C08E30FF
:100B1000D1F195C08C3109F490C028F4823109F0EC
:100B20008EC080E08BC0803509F478C0843509F42C
:100B30007BC085C021E0AE014F5F5F4F65E081E57E
:100B4000D9DB89818F7122DB8C3011F08F5F01C07E
:100B500081E089830FC021E0AE014F5F5F4F65E008
:100B600081E5C8DB89818F7111DB813011F0815003
:100B7000F0CF19838981F2DA898321E0AE014F5FDA
:100B80005F4F65E01FC0198221E0AE014F5F5F4FEC
:100B900063E081E583DB21E0AE014F5F5F4F64E0FE
:100BA00081E5A8DB89818F77F1DA8B3311F08F5FD4
:100BB00026C019828981D2DA898321E0AE014F5F94
:100BC0005F4F64E081E56ADB80916B008260809317
:100BD0006B0035C0198221E0AE014F5F5F4F63E0CB
:100BE00081E55CDB21E0AE014F5F5F4F64E081E5B2
:100BF00081DB89818F77CADA882319F08150898354
:100C0000D9CF0983D7CF80916A00833021F08F5FDD
:100C100080936A0014C010926A0011C0809169002C
:100C20008B3F68F48B5F05C080916900853038F098
:100C30008550809369003ADC02C081E00BDD809131
:100C40006B0081FF1DC080916B008D7F80936B00D6
:100C500022E042E650E064E081E54CDB80916300F5
:100C600049DE8091620046DE809162008F778EDAE5
:100C7000682F809163008F716A8388DA6A8196DEBB
:100C800080916B0083FF2BCF80919E00882351F0D1
:100C9000813079F421E040EA50E060919F0081E5E5
:100CA000FDDA07C021E040EA50E060919F0081E555
:100CB00021DB8091A0001EDE80916B00877F8093F6
:100CC0006B000DCF1F920F920FB60F9211242F932E
:100CD0003F934F935F936F937F938F939F93AF93C4
:100CE000BF93EF93FF93CF93DF931F92CDB7DEB700
:100CF00021E0AE014F5F5F4F61E081E5FBDA998152
:100D000097FF0EC080916B00826080936B009F778D
:100D1000998321E0AE014F5F5F4F61E081E5BEDA6C
:100D200021E0AE014F5F5F4F62E081E5E3DA898148
:100D300082FF04C080916B00846003C080916B00CF
:100D40008B7F80936B000F90DF91CF91FF91EF919C
:100D5000BF91AF919F918F917F916F915F914F91D3
:100D60003F912F910F900FBE0F901F901895FB0190
:100D7000DC0102C001900D9241505040D8F7089517
:040D8000F894FFCF15
:060D8400FFFF0600010064
:00000001FF
