:1000000091C0BEC11FC5A8C1A8C0A7C0A6C0A5C039
:10001000A4C0EDC36AC4BFC4A0C09FC088C49DC0B3
:100020009CC09BC09AC0351F111F35121F10351D73
:1000300015173515151F3507041F3517151D351FE5
:10004000151D3501011F351F151F3517151F351ECD
:10005000051E351F150A350E110A351F110E351FE5
:100060001511351F0501350E111A351F041F151FF7
:100070003508100F351F041B351F1010551F0204C3
:10008000021F451F02041F350E110E351F050245C4
:100090000E11191E351F053A3512150935011F01BC
:1000A000450F10100F350F100F550F1008100F359A
:1000B0001B041B3513140F35191513D7087F001CAB
:1000C00008000800087F001C0816081304134415D4
:1000D0008414051445130615851536149613071652
:1000E00037167834020752040333A007520403275B
:1000F00001040336710752040346710402075204D7
:100100000324600403467104020752029336710708
:100110005202932701029333A0075202933402073D
:100120005202930011241FBECFE5D4E0DEBFCDBF45
:1001300010E0A0E6B0E0ECE2FEE002C005900D9217
:10014000A636B107D9F710E0A6E6B0E001C01D92CF
:10015000A23AB107E1F74DD567C652CF482F30E03C
:1001600020E0822F90E0807F9070813491050CF028
:10017000205D822F90E08F70907005970CF02D5FBE
:10018000220F47FD21603F5F383011F0440FE9CF67
:10019000822F0895282F40E030E0369520FD30680A
:1001A0002695822F90E0807F9070813491050CF02D
:1001B0002053822F90E08F70907005970CF02350A1
:1001C0004F5F483051F7832F089584E080B981B1A3
:1001D00081B908950F93582FD90184EA86BF06B6D6
:1001E00007FEFDCF81B1887F883009F05DC0852F83
:1001F000880F83B984E886BF06B607FEFDCF81B1BC
:10020000887F883109F050C0FB0190E024E80DC0E0
:10021000808183B926BF06B607FEFDCF81B1319636
:10022000887F883209F040C09F5F941788F30023CD
:10023000B9F184EB86BF06B607FEFDCF81B1887F9A
:10024000883091F5550F516053B984E886BF06B6E2
:1002500007FEFDCF81B1887F803431F5FD0120E0BC
:1002600030E0402F50E064EC94E818C02F5F3F4F1F
:100270002417350749F496BF06B607FEFDCF81B1B6
:10028000887F883549F010C066BF06B607FEFDCFEF
:1002900081B1887F803541F483B18193201730F399
:1002A00084E986BF80E001C08FEF0F9108950F931E
:1002B000DF93CF930F92CDB7DEB76983FA01022F98
:1002C000BE016F5F7F4F41E09F0184DF0F90CF91B0
:1002D000DF910F910895FF920F931F93DF93CF93B8
:1002E000CDB7DEB72A970FB6F894DEBF0FBECDBFED
:1002F000F82E062F122F9E012E5F3F4FC901BA0123
:10030000412F50E088D509831F5F8F2DBE016F5F9D
:100310007F4F412F20E030E000E05CDF2A960FB6EF
:10032000F894DEBF0FBECDBFCF91DF911F910F912B
:10033000FF90089585B7826085BF8BB780648BBFBF
:1003400085B5886085BD80E883BD89B7806889BF31
:1003500010927100789408951F920F920FB60F9229
:1003600011248F9385B5887F85BD80B7826080BF5B
:10037000109271008F910F900FBE0F901F901895E3
:100380001F920F920FB60F9211241F932F933F933A
:100390004F935F936F937F938F939F93AF93BF938D
:1003A000EF93FF9394B580B7826080BF14BC85B58E
:1003B000876085BD8091710080FF50C0892F855076
:1003C000823108F054C09E30B8F4E0916C00E6959C
:1003D000E695E695F0E0E359FF4F308120916C00FF
:1003E000277081E090E002C0880F991F2A95E2F7FC
:1003F00080958323808315C0E0916C00E695E69597
:10040000E695F0E0E359FF4F308120916C002770B2
:1004100081E090E002C0880F991F2A95E2F7382BFF
:10042000308380916C008F5F80936C0081508F319E
:1004300009F510916D001230D1F480916E008F3F5C
:10044000B1F490916F008091700089278F3F79F40B
:1004500080916F00C4D2109371000CC093559D32EF
:1004600030F481E08093710010926C0003C084E04E
:1004700080937100FF91EF91BF91AF919F918F9108
:100480007F916F915F914F913F912F911F910F90AD
:100490000FBE0F901F90189587B38D6287BBC29ACD
:1004A0008DB1836F8DB98FB581638FBD8EB58A6035
:1004B0008EBD89B7816089BF83B7836083BF87B1F1
:1004C000806687B986B18F6086B9109275001092E8
:1004D00074007894089588BD0895882349F0809128
:1004E000660082608093660088B5809372000895EC
:1004F000809166008D7F80936600379808958D30D7
:1005000098F5693088F570E0982F969596959695B0
:10051000A82FB0E04423A1F0FB01EE0FFF1FE90F6D
:10052000F11DE557FF4F2081A770B07080E890E083
:1005300002C095958795AA95E2F7282B2083089508
:10054000FB01EE0FFF1FE90FF11DE557FF4F208163
:10055000A770B07080E890E002C095958795AA9545
:10056000E2F78095822380830895EF92FF920F93A4
:100570001F93E62E042FF22E07C0182F1F5F6E2D3B
:100580004F2DBDDF0150812F0023B9F71F910F912F
:10059000FF90EF90089580E090E0FC01E557FF4F59
:1005A0001082019682319105C1F708958F929F9232
:1005B000AF92BF92CF92DF92EF92FF920F931F9371
:1005C000CF93DF93182F882381F420E030E0F901E6
:1005D000E758FF4FD901A557BF4F8C9180832F5FFC
:1005E0003F4F2231310599F773C08150833008F0B5
:1005F0006FC060E070E0012F0250E0E4AE2EECE945
:10060000BE2E50E8E52EF12C40E2C42E4EE4D42E4E
:1006100059C0342F023040F5242F26952695269573
:10062000CA0187709070123071F4FE01E20FF11D63
:10063000E758FF4F2081470102C0959487948A951F
:10064000E2F728290DC0FE01E20FF11DE758FF4F28
:100650002081D70102C0B595A7958A95E2F72A2790
:100660002083C5010197F1F7369536953695FE0141
:10067000E30FF11DDF01A758BF4F9C919A0127702E
:100680003070470102C0959487942A95E2F7882D2F
:10069000809589238C939C91E557FF4F8081882119
:1006A000892B8C93113019F4C6010197F1F74F5F34
:1006B0005F4F4D30510509F0ACCF6F5F7F4F693010
:1006C000710531F040E050E0EB01CC0FDD1FA1CF10
:1006D000DF91CF911F910F91FF90EF90DF90CF901E
:1006E000BF90AF909F908F900895882341F0109213
:1006F0006700809166008160809366000895809114
:1007000066008E7F809366008FB580638FBD0895ED
:100710006F708295807F862B809374000895CF92AE
:10072000DF92EF92FF920F931F93DF93CF930F927D
:10073000CDB7DEB7282FE6E2F0E008C084918295BD
:100740008F7090E00196E80FF91F21502223B1F736
:100750008491F82EF294BFE0FB22AFE0EA2EE8226B
:100760006F010894C11CD11C90E019C0F6010491DE
:1007700010E00FC080917400682F6F70610F402FE0
:10078000417082958F70890F9983B9DE06951F5F3E
:1007900099811E1578F39F5F0894C11CD11C9F1589
:1007A00028F380917400805FF294F0EFFF228F0DA8
:1007B000809374000F90CF91DF911F910F91FF9064
:1007C000EF90DF90CF900895982F80538A3068F093
:1007D00081518A3110F4865F08C0892F81568A3191
:1007E00010F0892F02C0892F875599DF08951F9235
:1007F0000F920FB60F9211242F933F934F935F9355
:100800008F939F93EF93FF9380919D0020916700BA
:10081000909167009F5F909367009091670020958B
:100820002923282B20939D0027FF0BC02F7720938F
:100830009D008091660080FF04C08FB590E38927FA
:100840008FBD80919D0082FF0AC08B7F80939D00A9
:100850008091660081FF03C086B1806C86B950919B
:100860007500252F30E0F901EE0FFF1FE758FF4F0D
:100870008081809378004181487F40937700533096
:1008800070F484E090E0052E02C0959587950A9457
:10089000E2F7482B40937700109276000BC023506C
:1008A000304080E890E002C0959587952A95E2F760
:1008B00080937600C09810927300809176008FB973
:1008C000852F8F5F80937500893010F0109275002E
:1008D000FF91EF919F918F915F914F913F912F9158
:1008E0000F900FBE0F901F9018951F920F920FB68A
:1008F0000F9211248F93EF93FF93809173008230B6
:1009000068F4809173008F5F80937300E0917300AF
:10091000F0E0EA58FF4F80818FB901C0C09AFF9183
:10092000EF918F910F900FBE0F901F9018951F920F
:100930000F920FB60F9211248F939F9395B18091D0
:100940007200891720F4809172008F5F08C095B102
:1009500080917200981728F48091720081508093E2
:1009600072008091720088BD9F918F910F900FBE91
:100970000F901F901895899A10BC8CE089B98AB1A4
:1009800088698AB980B5866880BD789408955D9B32
:10099000FECF8CB908951F920F920FB60F921124BB
:1009A0002F933F934F935F936F937F938F939F9377
:1009B000AF93BF93EF93FF938CB119D0FF91EF9159
:1009C000BF91AF919F918F917F916F915F914F9167
:1009D0003F912F910F900FBE0F901F90189580930D
:1009E000A100809168008160809368000895982F2D
:1009F0008091680083FD25C09F3F19F410926B0021
:100A00000AC080916B00E82FF0E0E256FF4F908320
:100A10008F5F80936B0080919E00882329F48091E2
:100A20006B00823071F406C0813059F480916B0004
:100A3000833039F480916800886080936800109258
:100A40006B0008951F920F920FB60F9211240F930F
:100A50001F932F933F934F935F936F937F938F9346
:100A60009F93AF93BF93EF93FF93DF93CF930F9237
:100A7000CDB7DEB781E561E08E010F5F1F4FA801A2
:100A800021E015DC998197FF0CC08091680082609D
:100A9000809368009F77998381E561E0A80121E058
:100AA0001ADC81E562E0AE014F5F5F4F21E0FFDBC2
:100AB000898182FF04C080916800846003C08091B6
:100AC00068008B7F809368000F90CF91DF91FF913A
:100AD000EF91BF91AF919F918F917F916F915F91B6
:100AE0004F913F912F911F910F910F900FBE0F903B
:100AF0001F90189550DD82E062E00ADE82E664DE37
:100B000082E762DE89E660DE83E050DDFFCF1F937F
:100B1000CF93DF93EC010AC0FE01849182958F7020
:100B200090E0880F991FC80FD91F61506623A1F765
:100B3000FE01149112951F700FC02196FE01649161
:100B40002197FE0144914F70862F82958F706F70B0
:100B500021E00BDD22961150112379F7DF91CF911F
:100B60001F9108950F931F93082F10E002C01F5F7D
:100B700065506630E0F7633008F01F5F173020F0F3
:100B80000F5F1C3009F410E00C3008F00C5080911D
:100B90006300081721F4809164001817D1F00093C6
:100BA000630010936400F7DC80E060E042E021E045
:100BB000DCDC83E060E042E021E0D7DC89EC90E01F
:100BC000602FA5DF81EE90E0612FA1DF80916900A9
:100BD000EDDC1F910F910895939A85B7886085BFCA
:100BE0008BB780688BBF58DCA5DBEFDAC4DE789466
:100BF0000895DF92EF92FF920F931F93DF93CF93AD
:100C00000F92CDB7DEB7E8DF80E197E228EC30E065
:100C1000F9013197F1F70197D9F781E05EDC81E5C1
:100C200060E040E650E023E056DB8091680082609F
:100C3000809368007E010894E11CF11C0CE03BE30A
:100C4000D32E8091680080FFA2C0809168008E7FC3
:100C5000809368008091A100813189F1823178F41C
:100C60008930E9F08A3020F4843009F090C071C0F6
:100C70008C3009F45AC08E3009F089C034C08C31F0
:100C800009F481C08D3120F4823109F080C07DC02B
:100C9000803509F469C0843509F079C06BC081E5FD
:100CA00065E0A70121E003DB89818F7173DA8F5F33
:100CB000898381508C3089F481E089830EC081E57D
:100CC00065E0A70121E0F3DA89818F7163DA815051
:100CD00089838F5F813009F4098389813FDA8983B1
:100CE00081E565E019C0198281E563E0A70121E093
:100CF000F2DA81E564E0A70121E0D9DA89818F7712
:100D000049DA8F5F898381508B3309F41982898195
:100D100025DA898381E564E0A70121E0DCDA8091AE
:100D2000680082608093680032C0198281E563E0C8
:100D3000A70121E0D0DA81E564E0A70121E0B7DA7C
:100D400089818F7727DA815089838F5F01F7D98274
:100D5000DECF809169008F5F80936900815083307E
:100D6000B1F41092690013C080916A008B3F78F44F
:100D70008B5F05C080916A00853048F08550809374
:100D80006A00A9DB04C081E001C080E0AEDC809194
:100D9000680081FF1DC0809168008D7F809368008E
:100DA00081E564E040E650E022E081DA8091610074
:100DB000EEDD80916000EBDD809161008F71EAD9FA
:100DC000182F809160008F77E5D9682F812FCADEB8
:100DD0008091680083FF35CF80919E00882319F0B1
:100DE000813081F408C081E560919F0040EA50E0C5
:100DF00021E05DDA07C081E560919F0040EA50E0A4
:100E000021E069DA8091A000C2DD80916800877FCF
:100E10008093680016CFFB01DC0102C001900D92A7
:0C0E200041505040D8F70895F894FFCFDF
:060E2C00060001FFFF00BB
:00000001FF
